:100000000C945A000C946C000C946C000C946C00D2
:100010000C946C000C946C000C946C000C946C00B0
:100020000C946C000C946C000C946C000C946C00A0
:100030000C946C000C94D3000C946C000C946C0029
:100040000C94B5000C946C000C946C000C946C0037
:100050000C946C000C946C000C946C000C946C0070
:100060000C946C000C946C000C946C000C946C0060
:100070000C946C000C946C000C946C000C946C0050
:100080000C946C000C946C000C946C000C946C0040
:100090000C946C000C946C000C946C000C946C0030
:1000A0000C946C000C946C000C946C000C946C0020
:1000B0000C946C0011241FBECFEFD8E0DEBFCDBF83
:1000C00021E0A0E0B1E001C01D92A230B207E1F74B
:1000D0000E9471000C94E5000C9400000E947E00C8
:1000E00008950E946E00FFCF569A5E980E94AC0061
:1000F0000895219A29980E94C70008958DE380935E
:1001000065008FEF8093640094B114B895B185B900
:1001100097B1907897B998B19F6798B99AB11AB882
:100120009BB18BB98DB1807F8DB98EB18F608EB947
:1001300040E060E881E690E00E94A50013BE15BE95
:100140000E9474000E94790008952FB7F894FC0172
:10015000608340832FBF0895E4E6F0E080818F7DC7
:10016000808381E084BD80E008951F920F920FB6D6
:100170000F9211248F93A89A809101018F5F809331
:1001800001018F910F900FBE0F901F901895E4E61C
:10019000F0E08081877F808381E08093800080937E
:1001A0006F0080E008951F920F920FB60F921124F6
:1001B0008F9316BA809100018F5F809300018F9119
:0E01C0000F900FBE0F901F901895F894FFCF70
:00000001FF
