S01A0000427574746F6E52656C6179436F6E74726F6C2E73726563B0
S11300000C945A000C946C000C946C000C946C00CE
S11300100C946C000C946C000C946C000C946C00AC
S11300200C946C000C946C000C946C000C946C009C
S11300300C946C000C946C000C946C000C946C008C
S11300400C946C000C946C000C946C000C946C007C
S11300500C946C000C946C000C946C000C946C006C
S11300600C946C000C946C000C946C000C946C005C
S11300700C946C000C946C000C946C000C946C004C
S11300800C946C000C946C000C946C000C946C003C
S11300900C946C000C946C000C946C000C946C002C
S11300A00C946C000C946C000C946C000C946C001C
S11300B00C946C0011241FBECFEFD8E0DEBFCDBF7F
S11300C021E0A0E0B1E001C01D92A030B207E1F749
S11300D00E9471000C94F8000C9400000E94970098
S11300E008950E946E000E947600FDCF81E089B9D8
S11300F02FEF84E39CE0215080409040E1F700C062
S11301000000089522982A9852985A9853985B9818
S113011057985F980E94C6000895569A5E980E9468
S1130120D8000895219A29980E94E50008958DE346
S1130130809365008FEF8093640094B114B895B1F7
S113014085B997B1907897B998B19F6798B99AB1E2
S11301501AB89BB18BB98DB1807F8DB98EB18F6088
S11301608EB9269A2E98509A589A699A719840E0B6
S113017060E881E690E00E94D10013BE15BE0E94A3
S113018082000E948D000E949200089585E0809371
S113019068008CE880936D0084E080936B0080E0BD
S11301A008952FB7F894FC01608340832FBF08950E
S11301B0E4E6F0E080818F7D808383EC84BD83E07E
S11301C085BD88E987BD80E00895E4E6F0E080819C
S11301D0877F808381EC809380008BE08093810013
S11301E086E990E0909389008093880080E00895E8
S10701F0F894FFCFAD
S9030000FC
